:020000040000FA
:10000000803102288731F02F400119160800F800CE
:10001000780803190C280D282128F31F102811280F
:1000200021287009FA007109FB007209FC007309AC
:10003000FD00FA0A0319FB0A0319FC0A0319FD0A59
:1000400029287308FD007208FC007108FB00700885
:10005000FA007308720471047004031D30283128FB
:100060003A280030F3000030F2000030F100003098
:10007000F000B2289630F4007408F9004A280130E4
:10008000F4007408F9070130FD36FC0CFB0CFA0C87
:10009000890B4428FE307D05031D4F2850283F283A
:1000A00064280130F4007408F9070130FA070030C1
:1000B000FB3D0030FC3D0030FD3D0130FD36FC0CC9
:1000C000FB0CFA0C890B5E28FF307D05031D6928A7
:1000D0006A28512874280130F9020130FA35FB0DE5
:1000E000FC0DFD0D890B6E28FC1B772878287E28D7
:1000F0000230790203187D287E286B287918812820
:1001000082288A28FF30FA05FF30FB057F30FC0586
:10011000FF30FD050310F90C7908F400F501F60134
:10012000F7011830F435F50DF60DF70D890B92280F
:100130007408FA047508FB047608FC047708FD04CB
:1001400078080319A428A528AA28F31FA828A928F5
:10015000AA28FD177D08F3007C08F2007B08F10057
:100160007A08F00008004001B6000030BA00003004
:10017000B9000030B8000130B700B11FC028C12855
:1001800009292D08B3003308A1002D30B40034082C
:10019000A2003208B5003508A3003608963148267B
:1001A000803108304001B3003308B6077930360299
:1001B000031CDB28DC28E128B6010230B300330839
:1001C000AD07AE09AF09B009B109AE0A0319AF0A0C
:1001D0000319B00A0319B10A09290030F3000030ED
:1001E000F2000030F1000A30F0003A08F700390858
:1001F000F6003808F5003708F4009431B92480314E
:1002000073084001BA007208B9007108B80070089C
:10021000B7003A083102031D172939083002031DBF
:10022000172938082F02031D172937082E02031833
:100230001A291B29ED280030F3000030F2000030AD
:10024000F1000A30F0003A08F7003908F6003808E3
:10025000F5003708F40095317A25803173084001A4
:10026000BA007208B9007108B8007008B7008B298D
:1002700040012D08B3003308A1003A08F300390803
:10028000F2003808F1003708F0003108F7003008B4
:10029000F6002F08F5002E08F40095317A258031FC
:1002A0007008303E4001B4003408A2003208B500A6
:1002B0003508A300360896314826803108304001C1
:1002C000B3003308B60779303602031C6829692960
:1002D0006E29B6010230B3003308AD073A08F300C7
:1002E0003908F2003808F1003708F0003108F7004B
:1002F0003008F6002F08F5002E08F400953130255F
:10030000803173084001B1007208B0007108AF007D
:100310007008AE001B293A08031D99293908031DEE
:1003200099293808031D99290230370203189929A1
:100330009A29382940012D08B3003308A1002E085E
:10034000303EB4003408A2003208B5003508A300DE
:100350003608963148268031080040012708803948
:10036000A8002808B1002735A8002808B800A61F53
:10037000BA29BB29BC29381438080319C029C12956
:10038000D129380A031DC529C629CE290030A70066
:100390000030A6000030A5000030A400A617A70179
:1003A000D9290030A7000030A6000030A500003099
:1003B000A40023088039A8002808B1062335A80026
:1003C0002808B900A21FE529E629E72939143908C8
:1003D0000319EB29EC29FC29390A031DF029F1291D
:1003E000F9290030A3000030A2000030A100003045
:1003F000A000A217A301042A0030A3000030A2002D
:100400000030A1000030A0002308220421042004B1
:10041000031D0B2A0C2A252A0030A7000030A60055
:100420000030A5000030A4008030A6047F30A7046F
:100430003108A8002808A7042708A3002608A2005E
:100440002508A1002408A000602B3808031D292AD4
:100450002A2A332A0030A3000030A2000030A10075
:100460000030A000602B3808A800A9012908AB00C3
:1004700039082802AA00031CAB032A087F3EB200F9
:1004800000302B3DB3002708B0002608AF00250838
:10049000AE002408AD000030A7000030A6000030F8
:1004A000A5000030A4000030B7000030B6000030D6
:1004B000B5000030B400B9019B2A39080319612A3C
:1004C000622A7C2A0130AD35AE0DAF0DB00D890B1F
:1004D000632A0130A435A50DA60DA70D890B6A2A44
:1004E000B71F732A742A752A24140130B435B50D48
:1004F000B60DB70D890B762A23083002031D8A2A10
:1005000022082F02031D8A2A21082E02031D8A2A8F
:1005100020082D02031C8D2A8E2A972A37172008BF
:10052000AD022108AE3B2208AF3B2308B03B0130AF
:10053000A8002808B9071A303902031CA02AA12AEA
:100540005D2A30082F042E042D040319A82AA92A95
:10055000C22A3414C22A0130A435A50DA60DA70D58
:10056000890BAC2AB71FB52AB62AB72A2414013042
:10057000B435B50DB60DB70D890BB82AFF30B207EB
:10058000FF30B33DA61FC52AC62AAB2AB901B71F43
:10059000CA2ACB2AE72AFF303405A800FF303505E8
:1005A000A900FF303605AA007F303705AB002B08C5
:1005B0002A04290428040319DE2ADF2AE22AB901C1
:1005C000B90AE72A241CE52AE62AE72ADF2A39089D
:1005D0000319EB2AEC2A142B0130A4070030A53DA7
:1005E0000030A63D0030A73D271CF72AF82A142B1F
:1005F0002408A8002508A9002608AA002708AB009F
:100600000130AC00AB37AA0CA90CA80CAC0B022B28
:100610002B08A7002A08A6002908A5002808A4007E
:100620000130B2070030B33D3308803AA800803073
:100630002802031D1D2BFF303202031C202B212B0F
:100640002E2BFF304001B2000030B3000030A70075
:100650000030A6000030A5000030A400400133089F
:10066000803AA80080302802031D382B0130320266
:1006700003183B2B3C2B482B4001B201B301003047
:10068000A7000030A6000030A5000030A400B10192
:1006900040013208A8002808B800381C502B512B04
:1006A000532BA617572B7F30A8002808A6053836ED
:1006B000A8002808A7003108A8002808A7041C2AB9
:1006C0000800400157088039DC005C08E400573519
:1006D000DC005C08E600D61F6E2B6F2B702B6614B7
:1006E00066080319742B752B852B660A031D792B5D
:1006F0007A2B822B0030D7000030D6000030D50096
:100700000030D400D617D7018D2B0030D700003031
:10071000D6000030D5000030D4005B088039DC0002
:100720005C08E500650864060319972B982B992B44
:1007300064175B35DC005C08E500DA1FA02BA12BF9
:10074000A22B651465080319A62BA72BB72B650AE6
:10075000031DAB2BAC2BB42B0030DB000030DA00D8
:100760000030D9000030D800DA17DB01BF2B003091
:10077000DB000030DA000030D9000030D800660815
:1007800065020318C42BC52B092C641FC82BC92B69
:10079000CD2B8030DC005C08E4066608DC005C08D9
:1007A000E7006508DC005C08E6006708DC005C0820
:1007B000E5005408DC005C08E7005808DC005C0831
:1007C000D4006708DC005C08D8005508DC005C0831
:1007D000E7005908DC005C08D5006708DC005C080D
:1007E000D9005608DC005C08E7005A08DC005C0809
:1007F000D6006708DC005C08DA005708DC005C08FB
:10080000E7005B08DC005C08D7006708DC005C08D8
:10081000DB00E7016508DC00DD015D08DF0066083C
:100820005C02DE00031CDF035F08803AE0008030DA
:100830006002031D1D2C1A305E02031C202C212C8B
:10084000592C40015708560455045404031D292C03
:100850002B2C01302C2C0030DC005C08E700003031
:10086000D7000030D6000030D5000030D400650835
:10087000DC005C08E600602C671C3F2C402C462CFA
:1008800067360138DC005C08E700482C0310E70CF1
:10089000541C4B2C4C2C4D2CE7170130DC00D73767
:1008A000D60CD50CD40CDC0B4F2C0130DC005C08D2
:1008B000E607400165086602031C5F2C602C3C2C97
:1008C000641B632C642C9C2C6608031D682C692C0B
:1008D000722C0030D7000030D6000030D500003038
:1008E000D400982D5808D4075908D53D5A08D63D4C
:1008F0005B08D73D571C7D2C7E2C282D671C812C36
:10090000822C882C67360138DC005C08E7008A2CD2
:100910000310E70C541C8D2C8E2C8F2CE717013004
:10092000DC00D737D60CD50CD40CDC0B912C013065
:10093000DC005C08E607282D5708803ADC005B08DD
:10094000803A5C02031DAE2C5A085602031DAE2CE1
:1009500059085502031DAE2C580854020318B12C37
:10096000B22CEA2CFF30DC00FF30DD00FF30DE006F
:10097000FF30DF0054085802E0005508593BE10001
:1009800056085A3BE20057085B3BE3006008DC076F
:100990006108DD3D6208DE3D6308DF3D5F08D7008A
:1009A0005E08D6005D08D5005C08D4008030DC000D
:1009B0005C08E406E709E70A6708031DE02CE12C60
:1009C000F22C0130D4070030D53D0030D63D003048
:1009D000D73DF22C5808D4025908D53B5A08D63BCB
:1009E0005B08D73B5708560455045404031DF92CE3
:1009F000FA2C242D6708031DFE2CFF2C242D00301B
:100A0000D7000030D6000030D5000030D400982D3B
:100A10000130D435D50DD60DD70D890B092DE71F23
:100A2000122D132D142D5414671C172D182D1B2D4A
:100A30000314E70D1D2D0310E70D66080319212D82
:100A4000222D242D0130E602D61F272D282D082D1A
:100A5000E501E71F2C2D2D2D3B2D67087F3903194C
:100A6000322D332D362DE501E50A3B2D541C392D51
:100A70003A2D3B2D332D650803193F2D402D6D2D4B
:100A80000130D4070030D53D0030D63D0030D73D91
:100A9000571C4B2D4C2D6D2D5408DC005508DD00E6
:100AA0005608DE005708DF000130E000DF37DE0CBB
:100AB000DD0CDC0CE00B562D5F08D7005E08D6007D
:100AC0005D08D5005C08D400660A0319682D692DFD
:100AD0006D2D0130DC005C08E607660A0319712DF4
:100AE000722D772D6608031D762D772D852D00300C
:100AF000D7000030D6000030D5000030D4006608A2
:100B0000031D832D842D852DE401661C882D892DE0
:100B10008B2DD6178F2D7F30DC005C08D60566360E
:100B2000DC005C08D700E41F962D972D982DD71771
:100B3000080040013D088039C2004208C7003D3529
:100B4000C2004208CD00BC1FA62DA72DA82D4D1414
:100B50004D080319AC2DAD2DBC2D4D0A031DB12D33
:100B6000B22DBA2D0030BD000030BC000030BB00FB
:100B70000030BA00BC17C42D0030BD000030BC00EE
:100B80000030BB000030BA0041088039C200420882
:100B9000C7064135C2004208CC00C01FD02DD12D60
:100BA000D22D4C144C080319D62DD72DE62D4C0A06
:100BB000031DDB2DDC2DE42D0030C1000030C00012
:100BC0000030BF000030BE00C017EE2D0030C10065
:100BD0000030C0000030BF000030BE004C080319D8
:100BE000F22DF32DF82D4D08031DF72DF82D012EB4
:100BF0000030BD000030BC000030BB000030BA0047
:100C0000EF2F3A08C2004208F00040089331E72372
:100C1000853171084001D3007008D2005208C2002B
:100C2000C301C401C5014508CB004408CA004308FC
:100C3000C9004208C8005308C200C301C401C5016D
:100C40004508D1004408D0004308CF004208CE0038
:100C50003B08C2004208F0003F089331E72385318A
:100C600071084001D3007008D2005208C200C301CD
:100C7000C401C5014208C8074308C93D4408CA3D2C
:100C80004508CB3D5308C200C301C401C501420859
:100C9000CE074308CF3D4408D03D4508D13D3C0830
:100CA000C2004208F0003E089331E7238531710805
:100CB0004001D3007008D2005208C200C301C40131
:100CC000C5014208C8074308C93D4408CA3D450854
:100CD000CB3D5308C200C301C401C5014208CE0781
:100CE0004308CF3D4408D03D4508D13D0830C835C4
:100CF000C90DCA0DCB0D890B772E3B08C2004208E7
:100D0000F0003E089331E723853171084001D3009C
:100D10007008D2005208C8075308C93D0030CA3DC8
:100D2000CB3D3A08C2004208F0003F089331E72368
:100D3000853171084001D3007008D2005208C807FD
:100D40005308C93D0030CA3DCB3D0830C835C90DF8
:100D5000CA0DCB0D890BA62E3A08C2004208F0003E
:100D60003E089331E723853171084001D3007008B4
:100D7000D2005208C8075308C93D0030CA3DCB3DD8
:100D80003B08C2004208F00040089331E723853158
:100D900071084001D3007008D2005208CE075308F2
:100DA000CF3D0030D03DD13D3C08C2004208F000AC
:100DB0003F089331E723853171084001D300700863
:100DC000D2005208CE075308CF3D0030D03DD13D70
:100DD0003C08C2004208F00040089331E723853107
:100DE00071084001D3007008D2005208C2005308B5
:100DF000C300C401C5010830C235C30DC40DC50D03
:100E0000890BFC2E4208CE074308CF3D4408D03D55
:100E10004508D13D4808C2004908C3004A08C4003B
:100E20004B08C5001830C536C40CC30CC20C890B66
:100E3000132F4208CE074308CF3D4408D03D450854
:100E4000D13D0830C835C90DCA0DCB0D890B222FF5
:100E50004D084C07C200C301C30D4208823ED200B8
:100E6000FF30433DD3004B2F0130CE35CF0DD00D99
:100E7000D10D890B352FCB1F3E2F3F2F402F4E1406
:100E80000130C835C90DCA0DCB0D890B412FFF307C
:100E9000D207FF30D33DD01F4E2F4F2F342FCC0120
:100EA000CB1F532F542F702FFF304805C200FF3047
:100EB0004905C300FF304A05C4007F304B05C5001B
:100EC00045084404430442040319672F682F6B2F1D
:100ED000CC01CC0A702F4E1C6E2F6F2F702F682FF5
:100EE0004C080319742F752F9D2F0130CE07003049
:100EF000CF3D0030D03D0030D13D511C802F812F9F
:100F00009D2F4E08C2004F08C3005008C40051086E
:100F1000C5000130C600C537C40CC30CC20CC60BDB
:100F20008B2F4508D1004408D0004308CF00420869
:100F3000CE000130D2070030D33D5308803AC200C2
:100F400080304202031DA62FFF305202031CA92F3E
:100F5000AA2FB42F7F304001D1008030D000003064
:100F6000CF000030CE00E32F40015308803AC2008A
:100F700080304202031DBE2F013052020318C12FE0
:100F8000C22FCD2F00304001D1000030D000003002
:100F9000CF000030CE00C701E32F40015208C2004D
:100FA0004208CD00FF30CE05FF30CF057F30D005A1
:100FB0000030D1054D1CDD2FDE2FDF2FD0174D3631
:100FC000C2004208D1004708C2004208D1045108BB
:100FD000BD005008BC004F08BB004E08BA00080016
:100FE0008A30840093308500A0308600003087006E
:100FF0001B309231B4228731EA01400197310A2F28
:101000000034003400340034003400340034003440
:101010000034003400340034003400340034003430
:10102000003400340034F834003400340034003428
:1010300000340034003433343034003400340034AD
:10104000003410340C34063410340C3406340034BC
:1010500000340034003400340034003400340034F0
:101060004034C03478344034C034783440340034B0
:1010700004343F34043404343F340434043400343E
:10108000003470348834FC34083430340034003494
:10109000003418342034FF3421341E34003400343A
:1010A000F0340834F0340034E034183400340034C0
:1010B000003421341C3403341E3421341E340034F3
:1010C0000034F03408348834703400340034003490
:1010D0001E34213423342434193427342134103479
:1010E000103416340E34003400340034003400342C
:1010F0000034003400340034003400340034003450
:10110000003400340034E034183404340234003441
:1011100000340034003407341834203440340034B0
:101120000034023404341834E03400340034003421
:101130000034403420341834073400340034003490
:10114000403440348034F03480344034403400340F
:101150000234023401340F340134023402340034D6
:10116000003400340034F0340034003400340034EF
:101170000134013401341F340134013401340034AA
:1011800000340034003400340034003400340034BF
:101190008034B0347034003400340034003400340F
:1011A000003400340034003400340034003400349F
:1011B0000034013401340134013401340134013488
:1011C000003400340034003400340034003400347F
:1011D000003430343034003400340034003400340F
:1011E0000034003400340034803460341834043463
:1011F00000346034183406340134003400340034D0
:101200000034E0341034083408341034E03400344E
:1012100000340F3410342034203410340F340034B0
:10122000003410341034F834003400340034003406
:101230000034203420343F3420342034003400344F
:10124000003470340834083408348834703400347E
:1012500000343034283424342234213430340034FF
:10126000003430340834883488344834303400341E
:101270000034183420342034203411340E34003437
:1012800000340034C03420341034F83400340034D6
:10129000003407340434243424343F3424340034F8
:1012A0000034F8340834883488340834083400347E
:1012B0000034193421342034203411340E340034F5
:1012C0000034E03410348834883418340034003466
:1012D00000340F3411342034203411340E340034EF
:1012E0000034383408340834C8343834083400340E
:1012F0000034003400343F3400340034003400340F
:10130000003470348834083408348834703400343D
:1013100000341C3422342134213422341C3400346F
:101320000034E0341034083408341034E03400342D
:101330000034003431342234223411340F34003478
:10134000003400340034C034C0340034003400347D
:10135000003400340034303430340034003400348D
:10136000003400340034803400340034003400345D
:1013700000340034803460340034003400340034ED
:1013800000340034803440342034103408340034C5
:10139000003401340234043408341034203400346E
:1013A00040344034403440344034403440340034DD
:1013B0000434043404340434043404340434003471
:1013C0000034083410342034403480340034003485
:1013D000003420341034083404340234013400342E
:1013E000003470344834083408340834F03400349D
:1013F00000340034003430343634013400340034E6
:10140000C0343034C8342834E8341034E034003484
:101410000734183427342434233414340B34003480
:1014200000340034C0343834E03400340034003444
:1014300020343C342334023402342734383420340A
:101440000834F834883488348834703400340034F4
:1014500020343F3420342034203411340E3400340E
:10146000C034303408340834083408343834003494
:101470000734183420342034203410340834003435
:101480000834F8340834083408341034E0340034B4
:1014900020343F3420342034203410340F340034CE
:1014A0000834F83488348834E8340834103400348C
:1014B00020343F3420342034233420341834003492
:1014C0000834F83488348834E8340834103400346C
:1014D00020343F34203400340334003400340034EA
:1014E000C03430340834083408343834003400341C
:1014F000073418342034203422341E3402340034AB
:101500000834F8340834003400340834F83408342B
:1015100020343F3421340134013421343F34203429
:10152000003408340834F834083408340034003403
:101530000034203420343F3420342034003400344C
:101540000034003408340834F834083408340034E3
:10155000C0348034803480347F340034003400342C
:101560000834F8348834C03428341834083400344B
:1015700020343F34203401342634383420340034CD
:101580000834F834083400340034003400340034B3
:1015900020343F342034203420342034303400349C
:1015A0000834F834F8340034F834F83408340034AB
:1015B00020343F3400343F3400343F34203400348E
:1015C0000834F8343034C03400340834F834083483
:1015D00020343F3420340034073418343F3400348E
:1015E000E03410340834083408341034E034003463
:1015F0000F34103420342034203410340F340034AD
:101600000834F8340834083408340834F03400342A
:1016100020343F34213401340134013400340034A7
:10162000E03410340834083408341034E034003422
:101630000F34183424342434383450344F340034C4
:101640000834F8348834883488348834703400346A
:1016500020343F342034003403340C34303420340C
:101660000034703488340834083408343834003492
:101670000034383420342134213422341C340034F2
:10168000183408340834F834083408341834003472
:101690000034003420343F3420340034003400342B
:1016A0000834F8340834003400340834F83408348A
:1016B00000341F3420342034203420341F340034CC
:1016C00008347834883400340034C834383408346A
:1016D00000340034073438340E340134003400341C
:1016E000F83408340034F83400340834F834003462
:1016F00003343C340734003407343C3403340034BE
:101700000834183468348034803468341834083429
:10171000203430342C34033403342C34303420342B
:1017200008343834C8340034C83438340834003409
:101730000034003420343F3420340034003400348A
:101740001034083408340834C834383408340034C9
:1017500020343834263421342034203418340034F2
:10176000003400340034FE340234023402340034D5
:101770000034003400347F3440344034403400348A
:1017800000340C343034C0340034003400340034BD
:10179000003400340034013406343834C0340034AA
:1017A0000034023402340234FE3400340034003495
:1017B00000344034403440347F340034003400344A
:1017C000003400340434023402340234043400346B
:1017D0000034003400340034003400340034003469
:1017E0000034003400340034003400340034003459
:1017F0008034803480348034803480348034803449
:101800000034023402340434003400340034003430
:101810000034003400340034003400340034003428
:101820000034003480348034803480340034003418
:101830000034193424342234223422343F34203406
:101840000834F834003480348034003400340034F8
:1018500000343F3411342034203411340E34003439
:101860000034003400348034803480340034003458
:1018700000340E3411342034203420341134003438
:10188000003400340034803480348834F834003438
:1018900000340E3411342034203410343F342034DA
:1018A0000034003480348034803480340034003498
:1018B00000341F34223422342234223413340034CE
:1018C000003480348034F0348834883488341834D8
:1018D0000034203420343F342034203400340034A9
:1018E00000340034803480348034803480340034D8
:1018F00000346B349434943494349334603400342E
:101900000834F834003480348034803400340034B7
:1019100020343F3421340034003420343F34203428
:101920000034803498349834003400340034003467
:101930000034203420343F34203420340034003448
:101940000034003400348034983498340034003447
:101950000034C0348034803480347F340034003428
:101960000834F83400340034803480348034003457
:1019700020343F34243402342D34303420340034C5
:10198000003408340834F8340034003400340034AF
:101990000034203420343F342034203400340034E8
:1019A0008034803480348034803480348034003417
:1019B00020343F34203400343F34203400343F346A
:1019C00080348034003480348034803400340034F7
:1019D00020343F3421340034003420343F34203468
:1019E0000034003480348034803480340034003457
:1019F00000341F3420342034203420341F34003489
:101A00008034803400348034803400340034003436
:101A10008034FF34A1342034203411340E340034A7
:101A20000034003400348034803480348034003416
:101A300000340E34113420342034A034FF34803488
:101A400080348034803400348034803480340034F6
:101A5000203420343F342134203400340134003425
:101A60000034003480348034803480348034003456
:101A700000343334243424342434243419340034EA
:101A8000003480348034E0348034803400340034D6
:101A90000034003400341F34203420340034003447
:101AA0008034803400340034003480348034003496
:101AB00000341F3420342034203410343F34203498
:101AC0008034803480340034003480348034803476
:101AD000003401340E343034083406340134003418
:101AE0008034803400348034003480348034803456
:101AF0000F3430340C3403340C3430340F340034AD
:101B000000348034803400348034803480340034B5
:101B10000034203431342E340E3431342034003447
:101B20008034803480340034003480348034803415
:101B3000803481348E3470341834063401340034E7
:101B400000348034803480348034803480340034F5
:101B50000034213430342C342234213430340034F5
:101B6000003400340034003480347C3402340234D5
:101B7000003400340034003400343F344034403406
:101B80000034003400340034FF34003400340034B6
:101B90000034003400340034FF34003400340034A6
:101BA0000034023402347C34803400340034003495
:101BB0000034403440343F340034003400340034C6
:101BC0000034063401340134023402340434043461
:101BD0000034003400340034003400340034003465
:101BE0000034003400340034003400340034003455
:101BF00000342F340034003400340034073400340F
:101C000007340034003414347F3414347F341434F3
:101C1000003424342A347F342A34123400346234B9
:101C2000643408341334233400343634493455349E
:101C3000223450340034003405340334003400348A
:101C4000003400341C342234413400340034003475
:101C5000413422341C3400340034143408343E340B
:101C6000083414340034083408343E34083408345A
:101C7000003400340034A0346034003400340834BC
:101C800008340834083408340034003460346034D4
:101C90000034003400342034103408340434023466
:101CA00000343E345134493445343E340034003439
:101CB00042347F344034003400344234613451348F
:101CC0004934463400342134413445344B343134C2
:101CD00000341834143412347F3410340034273470
:101CE000453445344534393400343C344A3449347D
:101CF0004934303400340134713409340534033448
:101D000000343634493449344934363400340634E6
:101D10004934493429341E340034003436343634DE
:101D20000034003400340034563436340034003487
:101D30000034083414342234413400340034143470
:101D40001434143414341434003400344134223440
:101D50001434083400340234013451340934063464
:101D6000003432344934593451343E3400347C34F4
:101D70001234113412347C3400347F344934493401
:101D80004934363400343E34413441344134223411
:101D900000347F344134413422341C3400347F34E5
:101DA000493449344934413400347F3409340934E6
:101DB0000934013400343E344134493449347A34EE
:101DC00000347F340834083408347F34003400345D
:101DD00041347F34413400340034203440344134C1
:101DE0003F34013400347F34083414342234413415
:101DF00000347F34403440344034403400347F3445
:101E000002340C3402347F3400347F340434083418
:101E100010347F3400343E344134413441343E3454
:101E200000347F34093409340934063400343E3434
:101E30004134513421345E3400347F340934193450
:101E40002934463400344634493449344934313431
:101E50000034013401347F340134013400343F3420
:101E60004034403440343F3400341F342034403454
:101E700020341F3400343F344034383440343F344D
:101E800000346334143408341434633400340734B5
:101E90000834703408340734003461345134493420
:101EA00045344334003400347F3441344134003409
:101EB000003455342A3455342A345534003400342F
:101EC000413441347F34003400340434023401346A
:101ED000023404340034403440344034403440341C
:101EE000003400340134023404340034003420342B
:101EF000543454345434783400347F3448344434C3
:101F00004434383400343834443444344434203491
:101F1000003438344434443448347F340034383462
:101F20005434543454341834003408347E3409346E
:101F30000134023400341834A434A434A4347C347E
:101F400000347F34083404340434783400340034EA
:101F500044347D344034003400344034803484349C
:101F60007D34003400347F34103428344434003459
:101F70000034003441347F344034003400347C3445
:101F8000043418340434783400347C340834043491
:101F900004347834003438344434443444343834E9
:101FA0000034FC34243424342434183400341834F9
:101FB000243424341834FC3400347C34083404349D
:101FC0000434083400344834543454345434203401
:101FD000003404343F3444344034203400343C343E
:101FE0004034403420347C3400341C3420344034B9
:101FF00020341C3400343C344034303440343C34DD
:1020000000344434283410342834443400341C342C
:10201000A034A034A0347C340034443464345434C8
:102020004C34443414341434143414341434143408
:0E203000203420342034203420342034003476
:10254E004001191308004001191708004001191223
:10255E00080040010D0E01390800FE0012001E0099
:10256E00FE0BB52A0034603051018D008F019101B0
:10257E000630930092010800FB007B08FA007A08EF
:10258E00F60000309231EE2292310800FB007B08FB
:10259E00FA007A08F60040309231EE2292310800AD
:1025AE004F0196019701980199019A019B019C0197
:1025BE009D0108009231D722923194310A24923132
:1025CE009231BA2292319331552392310800F9009B
:1025DE007908F7007708F3007608F8007808F40019
:1025EE00783094315A2492310800F2007208410179
:1025FE009F0042019117111311141118072B082B6C
:10260E00042B41011E08F1001D08F0000800803166
:10261E00042093319231AA2293310D30890B152B60
:10262E0000009231AD2293310D30890B1C2B00002E
:10263E009231A722933108009231A7229331923121
:10264E00AD2293310D30890B2A2B00009231AA2234
:10265E0093310D30890B312B0000803104209331E2
:10266E000D30890B382B00000800FB01FB017B08A5
:10267E00A03E860087010108FA007A08F6000030B5
:10268E009231EE2293310130FA007A08FB071B30AB
:10269E007B02031C532B542B3E2B080041018C0153
:1026AE008D018E018F019201930198019A019F0174
:1026BE0042018C018D018E018F01900192019301D7
:1026CE0094019501960197019801843091000800BC
:1026DE004001A0007C08B03E9231C32293314001EC
:1026EE002008FD000430FD36890B7A2B7D080F394A
:1026FE0010389231C3229331400120080F399231A4
:10270E00C32293310800AE34003410344034B03458
:10271E008134FF34A134A634A8343F34C834D334C2
:10272E000034D5348034D8340534D934F134DA3425
:10273E001234D83430348D341434AF34F401F501FE
:10274E00701CAA2BAB2BAF2B7208F4077308F53D48
:10275E000130F235F30D890BB02B0130F136F00C50
:10276E00890BB52B70087104031DBE2BBF2BA72B35
:10277E007508F1007408F0000800803104209331D0
:10278E000D30890BC82B00009231AA2293310D30E7
:10279E00890BCF2B00009231B0229331003A0319EE
:1027AE00D92BDA2BDD2BF001F00ADE2BF001923162
:1027BE00A72293310D30890BE22B00007008080020
:1027CE00F800F401F5017008F200F3017208F6004A
:1027DE007308F700781CF42BF52BF92B7608F40709
:1027EE007708F53D0130F635F70D890BFA2B0310FE
:1027FE00F80C7808031D042C052CF12B7508F1003C
:10280E007408F00008004001980199019A013F30C8
:10281E009200A0309300FF309400FF307E01CE0076
:10282E00F030C3003730B800C401B901CF01BA018E
:10283E005030C500D0013730BB00F030C600FF303D
:10284E00D1003F30BC00F030C700FF30D20008008E
:10285E004001A1012108B03E9231C32294310030D3
:10286E009231C322943110309231C32294314001FF
:10287E00A00100309231CD2294310130FC007C0851
:10288E004001A00780302002031C4E2C4F2C402C00
:10289E000130FC007C08A10708302102031C582CD3
:1028AE00592C312C0800F50093310E239431750804
:1028BE009431892494319331C4239431003A03190D
:1028CE00692C6A2C6B2C882C7308943189249431D2
:1028DE009331C4239431003A0319762C772C782C3B
:1028EE00882C74089431892494319331C423943103
:1028FE00003A0319832C842C852C882C93312323A6
:10290E0094310800F100F2019231A722943171083E
:10291E00F0000730F036890B912C701C972C982CF8
:10292E009C2C8031042094319F2C9231AD22943115
:10293E000530890BA02C00009231AA22943103108D
:10294E00F10D0130F0007008F20708307202031C1E
:10295E00B12CB22C8B2C9231A722943180310420D1
:10296E00943108000030FB000030FA000030F9000E
:10297E000030F800701CC42CC52CCD2C7408F80740
:10298E007508F93D7608FA3D7708FB3D0130F435C0
:10299E00F50DF60DF70D890BCE2C0130F336F20C3A
:1029AE00F10CF00C890BD52C7308720471047004B1
:1029BE00031DE22CE32CC12C7B08F3007A08F200F5
:1029CE007908F1007808F00008004001B600B70160
:1029DE001F2D2D08B1003108A1002F08B3002E08BD
:1029EE00B20037083207840033080318330A850013
:1029FE000008B4003408A2003008B5003508A30062
:102A0E00360896314826943108304001B10031081D
:102A1E00B60779303602031C152D162D1B2DB60167
:102A2E000230B1003108AD070130B1003108B707EF
:102A3E002F08B2002E08B100370831078400320883
:102A4E000318320A85001200031D2E2D2F2DF02C97
:102A5E00080073087204710470040319372D382DA1
:102A6E00712DF901F90A462D0130F035F10DF20DF7
:102A7E00F30D890B3C2D0130F8007808F907F31F90
:102A8E00492D4A2D3B2D73087702031D582D7208D0
:102A9E007602031D582D71087502031D582D7008FE
:102AAE007402031C5B2D5C2D642D7008F4027108FA
:102ABE00F53B7208F63B7308F73B0130F336F20C28
:102ACE00F10CF00C890B652D0130F902031D702DF0
:102ADE00712D4A2D7708F3007608F2007508F10083
:102AEE007408F00008000030FC000030FB000030DD
:102AFE00FA000030F90073087204710470040319AF
:102B0E00892D8A2DCB2DFD01FD0A982D0130F03532
:102B1E00F10DF20DF30D890B8E2D0130F8007808B2
:102B2E00FD07F31F9B2D9C2D8D2D0130F935FA0DD0
:102B3E00FB0DFC0D890B9D2D73087702031DB12D26
:102B4E0072087602031DB12D71087502031DB12D99
:102B5E0070087402031CB42DB52DBE2D7008F4023E
:102B6E007108F53B7208F63B7308F73B7914013098
:102B7E00F336F20CF10CF00C890BBF2D0130FD0277
:102B8E00031DCA2DCB2D9C2D7C08F3007B08F20073
:102B9E007A08F1007908F00008000310720D730D29
:102BAE00F4007408FA007A08031DDE2DDF2DE82DDF
:102BBE000030F3000030F2000030F1000030F00081
:102BCE00472E7008F4007108F5007208F6007308BD
:102BDE00F7001F30F736F60CF50CF40C890BF12DBF
:102BEE007408F8007808F900F217FF30F005FF308E
:102BFE00F105FF30F2050030F3059630FA02FA1FA8
:102C0E00092E0A2E222E7A08803A973E0318102E8D
:102C1E00112E122EDF2D0130F336F20CF10CF00CCA
:102C2E00890B132E0130F4007408FA07031D202EB1
:102C3E00212E122E372E20307A02031C272E282EFC
:102C4E00322EDF2D0130F035F10DF20DF30D890B23
:102C5E002A2E0130FA027A08031D362E372E292E1F
:102C6E00790803193B2E3C2E472EF009F109F20983
:102C7E00F309F00A0319F10A0319F20A0319F30A08
:102C8E0008004001AB00AC012208E03EA40024087D
:102C9E00AA0080302B02031C552E562E5C2EAB0143
:102CAE002108023EA4002408A10010302306031DB3
:102CBE00612E622ED02E2108A4002408FC002B08C1
:102CCE0093316F2396314001AC012A08A400A5016F
:102CDE00A40EA50EF030A50524080F39A504F0307A
:102CEE00A4050030A6008830A70024082607A800F7
:102CFE002508273DA9002C08280784002908031859
:102D0E00290A850000089231CD229631013040010A
:102D1E00A4002408AC0708302C02031C972E982E12
:102D2E006C2E2108013EA4002408FC002B089331D0
:102D3E006F2396314001AC012A08A400A501A40E10
:102D4E00A50EF030A50524080F39A504F030A40512
:102D5E000830A6008830A70024082607A8002508FA
:102D6E00273DA9002C082807840029080318290AE2
:102D7E00850000089231CD22963101304001A40029
:102D8E002408AC0708302C02031CCE2ECF2EA32E07
:102D9E00092F2108A4002408FC002B0893316F236F
:102DAE0096314001AC012A08A400A5012408F000C8
:102DBE002508F1000630F2000030F3009331A52310
:102DCE009631F0304001A6008D30A700700826071E
:102DDE00A8007108273DA9002C082807840029089F
:102DEE000318290A850000089231CD229631013050
:102DFE004001A4002408AC0706302C02031C082F47
:102E0E00092FDA2E08009231E12297310930400164
:102E1E00E9001E30E800E430890B132FE80B132F66
:102E2E00E90B132F000093313C23973194312F245B
:102E3E00973112309231FC22973171084101C40052
:102E4E007008C300C4304001D7007A30D60000307D
:102E5E00D5000030D4004530BD009C30BC00403061
:102E6E00BB000030BA004530A3008030A200003015
:102E7E00A1000030A00041014308013EF0000030E7
:102E8E00443DF100F201F30100308031072097310B
:102E9E0073084001A7007208A6007108A50070080B
:102EAE00A4008131AD21973140012308C1002208D1
:102EBE00C0002108BF002008BE008531992597313A
:102ECE0040013D08DB003C08DA003B08D9003A0817
:102EDE00D800833161239731400157084101C20068
:102EEE00400156084101C100400155084101C00092
:102EFE00400154084101BF0040304001A300403062
:102F0E00A2000030A1000030A0004230BD004830C9
:102F1E00BC000030BB000030BA0041014208400145
:102F2E00C100410141084001C0004101400840017B
:102F3E00BF0041013F084001BE0085319925973100
:102F4E0040013D08A7003C08A6003B08A5003A0832
:102F5E00A4008131AD219731400123084101BE000B
:102F6E00400122084101BD00400121084101BC0081
:102F7E00400120084101BB004001AD011830AE00F8
:102F8E009030AF001030E8006808B0000030943187
:102F9E00EC2497314001AD0141013E08F3003D089C
:102FAE00F2003C08F1003B08F0009531D425973132
:102FBE0073084001B1007208B0007108AF007008CC
:102FCE00AE001030E8006808B20000308031B32047
:102FDE00973115304001E9004B30E800BE30890BC7
:102FEE00F62FE80BF62FE90BF62F0000202F80317D
:022FFE000228A7
:020000040001F9
:0A000E00EC3FFF3F9F3FFF3FFF3F25
:00000001FF
