:020000040000FA
:08000000803102288731FB2F3B
:100A420071084001AF007008AE0008007108400153
:100A5200B3007008B200080071084001B1007008CC
:100A6200B0000800603051018D008F019101063005
:100A72009300920108004F01960197019801990194
:100A82009A019B019C019D010800F0004E010F1E7E
:100A92004B2D4C2D472D700842019A000800F001A1
:100AA2004E010F1E552D562D5D2D42019E1E5A2DB3
:100AB2005B2D5D2DF001F00A7008080085313C25A0
:100AC20085318531DC258531853133258531853187
:100AD200812585318531BA2585310800F2007208F9
:100AE20041019F00420191171113111411187A2D1F
:100AF2007B2D772D41011E08F1001D08F000080032
:100B020041018C018D018E018F01920193019801A7
:100B12009A019F0142018C018D018E018F0190018A
:100B220092019301940195019601970198018430F5
:100B320091000800B02D853150258531003A031906
:100B4200A32DA42D9C2D7108840072088500000835
:100B52008531462585310130F1070030F23D7108BB
:100B62008400720885001200031DB82DB92D9C2D3A
:100B72000800083042019F0090309D0024309E0002
:100B820044309B009C010030F0000030F1008531C0
:100B9200272585310030F0000030F10085312D2508
:100BA20085310030F0000030F1008531212585319A
:100BB2004001B40108004001980199019A013930BD
:100BC200920070309300DF309400EF307E01CE004F
:100BD200D030C3003730B800C401B901CF01BA0127
:100BE200C501D0013730BB00F030C600FF30D10064
:100BF2003F30BC00F030C700FF30D2000F309F0002
:100C02000D307D01CB0008007808790403190A2E03
:100C12000B2E342EFD01FD0A172E0130F835F90D89
:100C2200890B0F2E0130FC007C08FD07F91F1A2EDC
:100C32001B2E0E2E79087B02031D212E78087A02C4
:100C4200031C242E252E292E7808FA027908FB3B54
:100C52000130F936F80C890B2A2E0130FD02031DF2
:100C6200332E342E1B2E7B08F9007A08F800080078
:100C7200F501F601700871040319402E412E702E01
:100C8200F701F70A4D2E0130F035F10D890B452E93
:100C92000130F4007408F707F11F502E512E442E34
:100CA2000130F535F60D890B522E71087302031DC2
:100CB2005C2E70087202031C5F2E602E652E700877
:100CC200F2027108F33B75140130F136F00C890B16
:100CD200662E0130F702031D6F2E702E512E7608FC
:100CE200F1007508F00008001030F0002730F10024
:100CF20040012108F3002008F200863139268631AE
:100D020070084001A2002208A3000A30F800003057
:100D1200F900E830F0000330F1002108F300200868
:100D2200F2008631392686317108FB007008FA001C
:100D320086310526863178084001A2002208A400E7
:100D42000A30F8000030F9006430F0000030F100A1
:100D52002108F3002008F200863139268631710815
:100D6200FB007008FA0086310526863178084001BA
:100D7200A2002208A5000A30F8000030F9000A306B
:100D8200F0000030F1002108F3002008F200863163
:100D9200392686317108FB007008FA008631052673
:100DA200863178084001A2002208A6000A30F80025
:100DB2000030F9002108FB002008FA0086310526E0
:100DC200863178084001A2002208A700A801ED2E72
:100DD2000130A2002208A8072808233E86008701C6
:100DE2000108031DF52EF62EFC2E05302802031CE9
:100DF200FB2EFC2EE92E05302806031D012F022FA3
:100E02000E2F853150258631003A0319092F0A2FFA
:100E1200022F3030853146258631053040012802C7
:100E2200031C142F152F162F2E2F85315025863196
:100E3200003A03191D2F1E2F162F40012808233EAA
:100E4200860087010108303E853146258631013012
:100E52004001A2002208A8070E2F0A30853146253C
:100E6200863108004001AC01AD0185315F25873133
:100E720040010E1A3D2F3E2F512F68304001A9002C
:100E8200E430890B422FA90B422F000040010E1AB9
:100E92004B2F4C2F392F0130AC070030AD3D392F8D
:100EA20068304001A900E430890B552FA90B552F5A
:100EB200000040010E1E5E2F5F2F392F2D08803A51
:100EC200A90080302902031D682F05302C02031867
:100ED2006B2F6C2F6D2F392F40012D08803AA900FE
:100EE20081302902031D772FF4302C02031C7A2F44
:100EF2007B2F9F2F031040019A1E03140318822F89
:100F0200852F40019A16872F40019A120C30F1006A
:100F12008830F20085319B258731103085316F256D
:100F2200873171084001AB007008AA002B08A100AC
:100F32002A08A000863175268731F52F40012D0839
:100F4200803AA90080302902031DA92F64302C02A7
:100F5200031CAC2FAD2FCA2F03104001181D031420
:100F62000318B42FB72F40011815B92F40011811DB
:100F72000030F1008830F20085319B258731103036
:100F820085316F25873171084001AB007008AA00D6
:100F9200972F40012D08803AA90080302902031DB5
:100FA200D42F05302C02031CD72FD82FF52F031076
:100FB2004001981C03140318DF2FE22F40019814FC
:100FC200E42F400198101730F1008830F20085318B
:100FD2009B258731103085316F258731710840019B
:100FE200AB007008AA00972F4001AC01AD01392F68
:100FF200803102284001B40140018731332F53343C
:1010020068346F3472347434203450347534733429
:1010120068340A3400344C346F346E34673420340C
:1010220050347534733468340A34003443346C34C5
:0A103200693463346B340A3400346F
:020000040001F9
:0A000E00EC3FFF3F9F3FFF3FFF3F25
:00000001FF
