:020000040000FA
:08000000803102288731EE2F48
:100CD400A030890B6B2E0800FE0012001E00FE0BD4
:100CE4006F2E0034603051018D008F019101063068
:100CF4009300920108004F01960197019801990110
:100D04009A019B019C019D01080086317D26863154
:100D140086319D2686318631742686310800323428
:100D24003234323432340034003400343234003457
:100D34000034003432344001980199019A013F3063
:100D44009200F0309300DF309400FF307E01CE003B
:100D5400F030C3003730B800C401B901CF01BA0183
:100D6400C501D0013730BB00F030C600FF30D100E0
:100D74003F30BC00F030C700FF30D2000800F40060
:100D8400F50175087407F0007008860087010108F2
:100D9400F1007108F300F201F31FD12ED22EDC2EE4
:100DA40040019A1600320032003240019A12003299
:100DB4000000E52E40019A160032000040019A120C
:100DC4000032003200327335F0007008F300013055
:100DD400F0007008F20708307202031CF22EF32EA2
:100DE400CE2E0130F0007008F50703307502031CA5
:100DF400FC2EFD2EC32E0800863187268631400145
:100E04003A08AC003B08AD003C08AE003708A0002F
:100E14003808A1003908A2003408A3003508A4004A
:100E24003608A5003108A6003208A7003308A80038
:100E34000030A9000030AA000030AB0086316A26D9
:100E440086314001B0012C308631C126863105300F
:100E5400F7000F30F600F130890B2E2FF60B2E2FF2
:100E6400F70B2E2F00000130F60076084001B00782
:100E740008303002031C3F2F402F252F2930F70064
:100E84009630F6007F30890B452FF60B452FF70B74
:100E9400452F00004001B00120308631C126863143
:100EA4000130F60076084001B00708303002031C18
:100EB4005C2F5D2F4E2F2930F7009630F6007F30DF
:100EC400890B622FF60B622FF70B622F0000400193
:100ED400B00123308631C12686310130F600760810
:100EE4004001B00708303002031C792F7A2F6B2F92
:100EF4002930F7009630F6007F30890B7F2FF60BF0
:100F04007F2FF70B7F2F00004001B0012630863180
:100F1400C12686310130F60076084001B00708305A
:100F24003002031C962F972F882F2930F700963014
:100F3400F6007F30890B9C2FF60B9C2FF70B9C2F10
:100F440000004001B001AF01B02F2C308631C12622
:100F540086310130F60076084001AF073008013EC3
:100F6400F600003003180130F7007708803A803C1F
:100F7400031DBE2F76082F02031CC12FC22FA72FDB
:100F8400083040012F02031CC82FC92FCA2FD42FA9
:100F940029308631C12686310130F60076084001B9
:100FA400AF07C22F0530F7000F30F600F130890B80
:100FB400D92FF60BD92FF70BD92F00000130F600EB
:100FC40076084001B00708303002031CEA2FEB2FEB
:100FD400A52F232F8031022891308400863085008C
:100FE40031308600003087000C3086316E26873120
:0C0FF400BD01BE01BF0140018631FE2E90
:020000040001F9
:0A000E00EC3FFF3F9F3FFF3FFF3F25
:00000001FF
