:10000000F80D002075170000611600007117000040
:1000100071170000711700007117000071170000C0
:100020000000000000000000000000007117000048
:100030007117000000000000711700007117000028
:10004000FFFFFFFFFFFFFFFFFFFFFFFFFFFFFFFFC0
:10005000FFFFFFFFFFFFFFFFFFFFFFFFFFFFFFFFB0
:10006000FFFFFFFFFFFFFFFFFFFFFFFFFFFFFFFFA0
:10007000FFFFFFFFFFFFFFFFFFFFFFFFFFFFFFFF90
:10040000FFFFFFFFDFCEFFFFFCFF0F00FFFF0F002E
:10041000FCFF0F00FFFF0F00FCFF0F00FFFF0F00AE
:10042000FCFF0F20FFFF0F20FCFF7F40FFFF7F40FE
:10043000FCFF0D40FFFF0D40FFFFFFFFFFFFFFFF31
:10044000FFFFFFFFFFFFFFFFFFFFFFFFFFFFFFFFBC
:10045000FFFFFFFFFFFFFFFFFFFFFFFFFFFFFFFFAC
:10046000FFFFFFFFFFFFFFFFFFFFFFFFFFFFFFFF9C
:10047000FFFFFFFFFFFFFFFFFFFFFFFFFFFFFFFF8C
:10048000FFFFFFFFFFFFFFFFFFFFFFFFFFFFFFFF7C
:10049000FFFFFFFFFFFFFFFFFFFFFFFFFFFFFFFF6C
:1004A000FFFFFFFFFFFFFFFFFFFFFFFFFFFFFFFF5C
:1004B000FFFFFFFFFFFFFFFFFFFFFFFFFFFFFFFF4C
:1004C000FFFFFFFFFFFFFFFFFFFFFFFFFFFFFFFF3C
:1004D000FFFFFFFFFFFFFFFFFFFFFFFFFFFFFFFF2C
:1004E000FFFFFFFFFFFFFFFFFFFFFFFFFFFFFFFF1C
:1004F000FFFFFFFFFFFFFFFFFFFFFFFFFFFFFFFF0C
:1005000010B540F22804C2F20004237863B940F227
:100510000003C0F200032BB142F66450C0F20000A9
:1005200000E000BF0123237010BDC04640F200036D
:10053000C0F2000310B54BB140F22C0142F66450FA
:10054000C2F20001C0F2000000E000BF10BDC046D2
:10055000F8B58368C568CE4699465B1B4746984602
:100560004368040080B50E0017005819904509D95A
:1005700002F096FABFF35F8FED19E5600CBC904670
:100580009946F8BD424602F08BFA4B463100ED1910
:10059000ED1A2A006068414402F082FABFF35F8FCF
:1005A000E560EBE7F8B54746CE46884680B51600CD
:1005B000070040F20009C56884681CE0013B5B1B32
:1005C000641BB44200D934009C4200D91C007B68F3
:1005D00022004146581902F063FA2D19A144A044A3
:1005E000361BBC68631B5A1E93415B421D40BFF320
:1005F0005F8FFD6036B13B699D42DFD3013B1B1924
:100600005B1BDDE748460CBC90469946F8BDC046EA
:1006100010B540F2A0440323C2F20004236142F665
:100620002C32636140F25403C0F20002C2F20003B4
:10063000A261E36140F2004323620023A36263628C
:10064000E362226640F24402C2F20002626642F6AF
:1006500038311022E01DA266C0F200010C3A236777
:10066000E366636702F01CFABFF35F8F42F63C3328
:10067000C0F200031A6822609B88A380BFF35F8FDB
:100680002023A371BFF35F8F10BDC046431C70B51C
:1006900004005800C01840F2A043C2F200039C4678
:1006A00063001B19DB006344DC6AC0001500604472
:1006B000012C05D0022C1ED084B10024200070BD76
:1006C0009A6A5C6AA2421FD9013A121B2C00954219
:1006D00000D914002200FFF73BFFEFE79A6A5E6A39
:1006E000B2420CD9013A921B9542E7D82A00FFF793
:1006F0002FFF2C00E2E7FFF755FF0400DEE71B6A3F
:10070000D218013A921BEFE71B6AD218013A121B6A
:10071000DCE7C046F8B540F2A043C2F200031B7804
:1007200004000D00160063B1EFF31087012181F37F
:100730001088320029002000FFF7A8FF87F31088F7
:10074000F8BDFFF765FFEFE710B504008368626846
:10075000581C904207D82268D154E368626801337C
:10076000E3600300A0609A4200D010BD21682069B8
:10077000FFF7D0FFA368984203D001235B42E360F8
:10078000F3E70023A360F0E7F8B557464E46454629
:10079000DE46E0B51E000A9B0F00814615009A4612
:1007A0000B99974200D26FE03B000122B3FBF5F3B7
:1007B00001329D42FAD99046B24200D2B04601239E
:1007C0001A000A4093460B4240D15346002B3DD0BD
:1007D00020248B0751D4D04538D201235B429C465C
:1007E00021004846E244FFF7AFFF4B46DB68002B91
:1007F00026DB5346002BEED10124012E03D9013E06
:100800006C43012EFBD8B7FBF4F39D42F8D942F6B6
:10081000C836C0F2000606E0B4FBF5F3AC420DD3D7
:100820001C00B7FBF3F322005A43F1564846BF1AA7
:10083000FFF78AFF4B46DB68002BEDDA5B46C3B956
:100840003CBC90469946A246AB46F8BD4B46DB6899
:10085000002BD1DAF4E7D045F2D201235B429C466B
:1008600020214846E244FFF76FFF4B46DB68002B30
:10087000E6DB5346002BEED1E2E77442744163425B
:1008800010241C402034A6E7012294E7F0B5574617
:10089000DE464E464546E0B59DB00CAB079340237F
:1008A0000893002383460C00914640F2010AB94F99
:1008B00009930B900A9305E007A8FFF745FF0A98F4
:1008C000002861DB002161560134002963D025290D
:1008D000F2D122000023D35600260225082014005E
:1008E00021392D2B0DD02D2B0FDC232B12D02B2BB0
:1008F00000D059E10E4301320023D35614002D2BB2
:10090000F1D1534601321E43F6E7302B05D12E4379
:100910000132F1E706430132EEE71A00303AD2B273
:100920000025092A0FD81900AB005B195B005B1882
:10093000002101346156303B0A00303AD2B21D002A
:10094000092AF1D90B002E2B00D1D4E0002340F26C
:100950000008E356042102E000230134E3561A00A4
:100960008A43682AF8D0252B06D0583BDBB2202BCF
:1009700006D89B00FB589F46252107A8FFF7E4FEF9
:100980000A98013400289DDA1DB03CBC9046994677
:10099000A246AB46F0BD0A980028F5DD099A002A68
:1009A00000D0C7E08018EFE74B4649461B6807A810
:1009B0001A1D0A6019680A22434601960095FFF73E
:1009C000E3FE01340A98DDE74B4649461B681A1DD1
:1009D0000A601D6805E007A8FFF7B6FE0A98002820
:1009E000CFDB0021695601350029F4D10A98C8E708
:1009F0004B4649461B6807A81A1D0A601968002360
:100A00000193083310220093FFF7BEFE01340A98C9
:100A1000B8E74B4649461B681A1D1B680A60DA177F
:100A200003939B1853400122092B06DD0A2019006D
:100A3000013293FBF0F36329F9DC434604939045BC
:100A400000D27FE0002D51D0039B002B00DA7DE027
:100A500073077BD4B30702D54346002B46D05346D9
:100A6000334243D1002D41D00596049EAE423CD284
:100A700007A82021FFF768FE0A98013D002800DA48
:100A80007FE7002DF2D1059E039B002B60DB7307EF
:100A900069D403233340022B6AD007A843460A22B5
:100AA000039901960095FFF76FFE01340A9869E7F4
:100AB0004B4649461B6807A81A1D0A600021595673
:100AC000FFF742FE01340A985CE74B4649461B6833
:100AD00007A81A1D0A60196810224346019600955E
:100AE000FFF752FE01340A984CE7059E0A98002849
:100AF000CADA013446E70123E356611C1A00303A92
:100B0000D2B20C0040F20008092A00D922E71900ED
:100B1000404683001B185B005B18002101346156BE
:100B2000303B0A00303AD2B21800092AF1D90B0042
:100B300080460FE758460CA9FFF7ECFD0A98099A82
:100B4000801821E70492002DD0D07DE7013D81E798
:100B50005B422D2107A80393FFF7F6FD0A980028B2
:100B600097DA01340EE72B2107A8FFF7EDFDF5E733
:100B70004346002B91D1ADB1049BAB420CD207A8E8
:100B80003021FFF7E1FD0A98013D0028F3DA013436
:100B9000F8E6C046442B00000A98002800DB7CE7FA
:100BA0000134EFE6002578E70025CFE60EB400B566
:100BB00082B003AB02CB01AA0193FFF767FE02B03C
:100BC00008BC03B01847C046F0B54746CE4680B5CE
:100BD00083B06B462025002740F2010947F6FE78D6
:100BE00001AC9E1D40F25050C2F2000000F08EF9A0
:100BF0004B46237040F250502100C2F2000000F03A
:100C0000A1F92378012BF5D040F250503200002199
:100C1000C2F2000000F0CCF9338843455DD8FF18DC
:100C2000013D002DDED14FF6FF727F09378017405E
:100C300040F6E44242F6D831574347F6FF72C0F21D
:100C4000000197FBF2F20020FFF7B0FF308801F0BF
:100C5000A7FD0B004FF6C0710200C4F2DF010020B7
:100C600000F0A8FE00230022C3F6F07301F0C6F9DD
:100C700040F20403C2F20003040018680D0001F002
:100C80008FFD02000B002000290000F093FE40F2CF
:100C90000003C2F20003040018680D0001F080FD9B
:100CA0000B0000210200C3F6F071002000F082FE6C
:100CB00002000B002000290001F0A0F90B00002128
:100CC0000200C3F6F071002000F074FE00F054FE44
:100CD00003B00CBC90469946F0BD002333809FE7DB
:100CE00042F6E43110B5C0F200010020FFF75EFFCC
:100CF00042F6F83140F25050C0F20001C2F200005A
:100D000000F06AFA42F6184140F25050C0F2000179
:100D1000C2F2000000F05EF9FFF756FF42F6F03134
:100D20000200C0F200010020FFF740FF40F24850EF
:100D3000012240F20521C2F2000000F02FF844F237
:100D400040210120C0F20F0100F05CFC40F248504D
:100D5000002240F20521C2F2000000F01FF844F228
:100D600040210120C0F20F0100F04CFCD4E7C04646
:100D700010B5022800D010BD42F6284140F248507C
:100D8000C0F20001C2F2000000F0A8F8F3E7C0468C
:100D900010B5FFF7A5FF002010BDC04600B345F217
:100DA00054230068C5F24F03984213D1012A15D885
:100DB000FF2001230840834072B14FF6FF721340B9
:100DC0000022C4F204029446090A49016144002049
:100DD0008B6000E0072070471B04F1E70320FAE76F
:100DE0000120F8E7F0B5DE4657464E464546E0B5E9
:100DF00083B0EFF31082012383F3108840F2705325
:100E0000C2F2000301931B6833B940F60054C4F2E8
:100E10000404E3704033E370019C236801332360D2
:100E200082F310880388C3B30B6840F60004984629
:100E300080235B029C46284B00229A46C4F204049D
:100E40000DE0330A9946FF231E404B461B019B19B8
:100E50009B0019510132038892B293421DD9634617
:100E6000D10041448E8809681942EAD0330A994674
:100E7000FF231E404B4657461B019D19AD00A94656
:100E80002D593D40AB464D465F462F5155460D40CE
:100E9000AB464D465F462F51D9E7EFF31082012351
:100EA00083F31088019B1B681BB101990B68013B00
:100EB0000B60019B1B6833B940F60051C4F204017A
:100EC000CB708033CB7082F3108803B03CBC90466B
:100ED0009946A246AB46F0BDFFFFFEFF030010B5EA
:100EE00008007BB171B14A6862B145F254221968B9
:100EF000C5F24F02914207D0011D1A60FFF772FF41
:100F0000002010BD0120FCE70E20FAE7B0B144F24A
:100F100043438268C5F241239A420DD1802203687F
:100F2000995A48F20102914202D01A88D20B3AB97A
:100F3000028A00201A8070470720FCE70120FAE7A8
:100F40000820F8E778B171B144F243438268C5F2F2
:100F500041239A4205D1036800201B88DB0B0B70EC
:100F600070470720FCE70120FAE7C046CBB230B556
:100F700005001F2B0ED8012340F2FF108B40C0F25A
:100F8000FF00034211D000202B6810314900CB5ADA
:100F9000138030BDDC1CE4B2012CF4D9081DF2D062
:100FA000323B0120012BF4D8EDE70120F1E7C046E8
:100FB00010B560B15AB144F243438468C5F241238D
:100FC0009C4202D1FFF7D2FF10BD0720FCE70120B1
:100FD000FAE7C046F0B5DE4657464E464546E0B510
:100FE000040083B0002800D17EE000297CD044F2C8
:100FF00043438268C5F241239A4200D07DE00D68E8
:10100000002D71D04FF600632E00CCF600731E4009
:101010001D4269D142689078804601285BD04868BB
:10102000002861D1C0232F009B051F401D4266D1BF
:10103000536999464B461B78002B00D1BDE08B6865
:1010400098462B00424603439A43002A4CD143461C
:10105000002B49D08B7B002B46D12A005D4B4746A5
:101060001A40944602001A403B409B46634627685C
:101070009BB2BB8093B2BB825B469BB23B81634613
:101080001B0CFB805B46120C1B0CFA827B81C0237D
:1010900028439B05009018423ED16623CA7BFA5232
:1010A0008A891A33FA524B46DB7893B11F223B8868
:1010B000934398466346002B00D184E0604600F0DD
:1010C0000FFC43461F331B1A9BB23B80228A1343FB
:1010D0002382E56009E0486830B12B43184203D110
:1010E000C0239B0518429DD00126300003B03CBCB4
:1010F00090469946A246AB46F0BD0726F5E79F42CB
:10110000F2D0BD42F0D14346002BEDD15369994650
:10111000DB78002BE8D18DE74EF20003C4F2010327
:101120001B6A9A465246120E934640F29C4307228F
:101130005846C2F200031B681040834050460240EC
:10114000D34040F2E832B3FBF2F341F2883253432A
:1011500044F24022C0F20F02B3FBF2F2531C01939F
:10116000072B01D20723019380235B059A46504643
:10117000009A134002420CD040F2DE0B6B465846F8
:101180001B793B54404653460340581E834101336C
:10119000FF338020009A8005824602420AD06A46C8
:1011A000DF2012793A544246504602420DD140F2B5
:1011B000002213439BB27B826FE78B689846002B1B
:1011C00000D147E790E720207BE740F2022213435B
:1011D000F0E7C046FFFFFFCFF0B54546DE46574675
:1011E0004E46E0B50C00050083B0002800D120E198
:1011F000002900D11DE10E88002E00D01BE14EF227
:101200000003C4F20103186A40F29C430722C2F2B1
:1012100000031B68010E11408B400240D34044F292
:101220003F22C0F20F02934200D811E1676901200A
:101230003B7801930023FB56002B06DD03B03CBC3A
:1012400090469946A246AB46F0BDA378012B00D14B
:10125000F4E0FA7812B16279022AEFD1E278012043
:10126000042AEBD144F24342A968C5F241229142DB
:1012700000D107E1E2681AB1A0797F2800D903E123
:101280006A6122696C60EA610022AA614CF2000284
:10129000C4F205022A6062795B0310020343F87806
:1012A000002800D1D6E040F2C02C61460B439BB22F
:1012B0002B82022A05D142F6F0428000C0F20002E1
:1012C000165A44F200007A78520102439446EFF332
:1012D0001089012282F3108847F20002C4F204024E
:1012E000916840F2100A884621888B46514658463C
:1012F000091A01208840414681439160926889F330
:10130000108847F6FF502A680340138063469BB25B
:101310001682D38180230199994311730021703380
:10132000D1523B79002B00D09BE006236968CB5655
:10133000002B3EDB4EF2001240F2003940F2FF0873
:10134000CEF2000294464A4603264746980880009B
:10135000604482581E409446227AF60092013A4038
:10136000B740B2403E006746B7434E463A438251CB
:1013700040F274529800C2F2000285501A0046F200
:101380000000C032C4F20000920016583F4F3E40A9
:1013900016501F200122184082404EF20010CEF25B
:1013A0000000844640F280105B099B0063441A50A1
:1013B0001A600723CB56002B32DB4EF200120320BB
:1013C000CEF200029446627AFF2440F200361840C2
:1013D000C000920122408440824099088900614403
:1013E0008F59A7433A438A5140F274529900C2F28E
:1013F00000028D501A0046F20001C032C4F2000112
:1014000092005058214C204050501F210122194079
:101410008A4040F280115B099B0063445A501A6075
:101420000023EB6044F24343C5F241230020AB604C
:1014300004E7012002E740F27A50FFE66279022ACF
:1014400000D0FBE6BA781800022A00D0F6E605E7DD
:101450001B20F3E68AB948F2400213439BB22B8269
:101460002FE7F42616310B4093559620153900F0DE
:10147000C9F83B792A68935557E740F2400C61461A
:101480000B4314E70E20D9E60B20D7E6FFFFFEFF43
:101490004EF20003A022C4F201039A5C824217D0EC
:1014A00036229A5C1AB93C215A5CD207FCD54EF21E
:1014B0000002A021C4F20102535CDB06FCD45054AC
:1014C0004EF20002A021C4F20102535CDB06FCD400
:1014D0007047C0464EF20003262240F21001C4F2CB
:1014E0000103985C1B6A8000C2F2000141585B0155
:1014F0005B0F40F29C42D940C2F20002116070477B
:101500004EF2000340F2FE323A49C4F2010370B5D4
:1015100099524CF2000240F200110024C4F2010280
:10152000545240F2100446F60042C2F20004C0F2E7
:10153000DC22226041F20022C0F27A02626048F2AC
:10154000000241F60031A26022612622C0F2B701FA
:10155000E160995C1A6A890061585201520F40F2A9
:101560009C45D140002040F21342C2F200052960A0
:1015700098540921A222995440F28042995C19B1F1
:1015800040F28141585498540020FFF781FF4EF2F9
:10159000000300213622C4F2010399543C315A5C05
:1015A000D207FCD501203122002198540B3A9954DE
:1015B0000231FF31C1F200011962995C1A6A890097
:1015C00061585201520FD14040F2FE3229600A495F
:1015D00099524CF2000240F2041340F20411C4F29A
:1015E0000102D052535A002BFCD101210133FF33A9
:1015F000D15270BD03A5FFFF00A5FFFF01380028F1
:10160000FCD1704740F29C424CF600234143C2F2A9
:10161000000270B51468C3F69A330D00B3FBF4F4FE
:10162000080040F2E8320023002100F077F931B9D8
:10163000B0FBF4F0800808B1FFF7E0FF70BDA40034
:10164000B5FBF4F040F2E8320023002100F066F927
:101650000029F0D001204042FFF7D0FFEEE7C0465E
:10166000F8B546F2000340F2401240F2544700241D
:101670000126C4F200039D5AC2F20007ADB22B004E
:10168000E340E0B21E4203D0A300DB5903B1984708
:101690000134102CF3D146F2000340F23012C4F2B0
:1016A00000039D52F8BDC04646F200000023C4F27C
:1016B000000042F6FC42C0F200029A1811781A00AB
:1016C000C032920001331150202BF2D17047C04636
:1016D00070B5EFF31081012383F3108840F2944337
:1016E0004000C2F200031A5A1AB11A5A013A92B2D1
:1016F0001A521B5A83B94EF2000240F2FE3542F6EE
:101700001C54C4F20102565B054BC0F20004205A7F
:10171000334383439BB2535381F3108870BDC0465B
:1017200000A5FFFF70B5EFF31081012383F310884C
:1017300040F294424000C2F20002135A83B94EF2C2
:10174000000442F61C5540F2FE36C4F20104C0F219
:101750000005A35B2D5A2B434AF200552B43A3539C
:10176000135A01339BB2135281F3108870BDC046E7
:1017700000BE704710B500F003F8FFF709FBFEE765
:1017800070B5002082B0FFF7F3FAFFF7B9FE6B46A1
:101790000026DC1D267001202378FFF7C3FFEFF33E
:1017A0001081012585F3108847F20003C4F2040379
:1017B0005A68484802405A605A6881F3108840F6D7
:1017C0000001C4F204010A68D207D20F22700A682D
:1017D000D207D20F22700A68D207D20F2270EFF31D
:1017E000108185F3108880225868520502435A60A0
:1017F0005B6881F310880120FFF76AFF0120FFF783
:10180000B7FA40F60053344AC4F200039E801A80AF
:1018100040F6F812C2F200029A6040F6F852C2F2A4
:101820000002DA6046F2000240F2201141F20000AC
:10183000C4F20002505240F2F45240F22800C2F2C8
:101840000002C2F200009D800021121A01F031F95D
:1018500040F2000040F2100242F66851C2F200006D
:10186000C2F20002121AC0F2000101F019F940F2AE
:10187000080540F20C03C2F20005C2F200035B1B34
:101880009E10002B05DD002408CD01349847A642A8
:10189000FADCFFF71FFE0320FFF744FF40F600517C
:1018A00001200023C4F2040140421A000832520011
:1018B00001335052092BF8D10320FFF709FF022012
:1018C000FFF756FAFFF7F0FE002000F007F802B02D
:1018D00070BDC046FFFFFFEF00A5FFFF7047C04689
:1018E0001C2101231B04984201D3000C10391B0A50
:1018F000984201D3000A08391B09984201D3000914
:10190000043902A2105C40187047C046040302026A
:10191000010101010000000000000000F0B5CE460A
:1019200047464FF6FF7580B50700280015400E00AA
:101930002900140C384099463B0C41435D436043F9
:10194000634340190C0C24189C46A54203D98023FC
:101950005B029846C4444B464FF6FF707B4372438C
:10196000250C6544240408405919201889180CBC1A
:1019700090469946F0BDC046002370B50022C4F2DF
:10198000E01304000D0000F067FF20B920002900DB
:1019900000F0D4FE70BD00230022C4F2E01320004A
:1019A000290000F02BFB00F0C9FE80231B069C469B
:1019B0006044EFE7F0B557464E464546DE46E0B593
:1019C0008146050048000C03400D92461F0087B079
:1019D000240BCE0F002861D040F2FF73984200D153
:1019E000A7E06B0FE4001C438023914A1B042343B0
:1019F00098469446030040F2000940F2000B63440D
:101A0000ED0001937B003C035B0D5046240BFF0F60
:101A1000002B6DD040F2FF72934218D0420FE400C9
:101A20001443802212041443814AC10094460020CA
:101A3000019A6344D31A019333004A467B400293D0
:101A40000F2A00D9FEE07B4B92009A5897467A4ABB
:101A500051469446019B214363440193002900D0E1
:101A6000A9E04A4602231A43914600240220E3E7F4
:101A7000002200240025029B12052243DB071A43A3
:101A80002800110007B03CBC90469946A246AB46E0
:101A9000F0BD40F2FF7200240025ECE74B462343E3
:101AA0009846002B00D19DE0002C00D10EE22000D2
:101AB000FFF716FF010002000B391D235B1A494690
:101AC0001000D940083884400B004D462343984607
:101AD00085405A483C03831A01937B005B0D40F21A
:101AE000000940F2000B5046240BFF0F002B91D150
:101AF00051462143002965D0002C00D1F6E1200099
:101B0000FFF7EEFE02000B3A1D239B1A524601001E
:101B1000DA40534608398B408C4019001443019B2E
:101B20009C466044030040F2F33C63440020019370
:101B300082E74B4623439846002B4AD140F2FF737D
:101B4000002540F2080940F2020B01935AE7029681
:101B50005B46022B9DD0032B00D144E2012B00D128
:101B600086E740F2FF3C019B6344181E00DC59E10C
:101B70006B0700D0C8E1ED084346DB0108D54346BA
:101B800040F2004C2E4A13409846019B63441800D3
:101B900040F2FE71884200DD7BE743465A07154359
:101BA00040F2FF725C02240B024064E7A0460D0085
:101BB00083460297CCE74A4603231A43914651468F
:101BC000032039E74A4601231A43914600240120A5
:101BD00032E740F2FF73A04640F20C0940F2030BDB
:101BE00001930FE70023002540F2040940F2010BA6
:101BF000019307E70023802400250293240340F289
:101C0000FF7238E7802243461203134207D0144282
:101C100005D1144324030D00240B0297EFE7802421
:101C2000434624031C432403240B0296E7E7C046E3
:101C300001FCFFFF242D000001F8FFFF0DFCFFFF5A
:101C4000FFFFFFFE444500D238E100D133E1AC464E
:101C500040460025019B013B019324020F0E260CF8
:101C600027433300B0FBF6F46343C01A03049846DD
:101C700063460A024FF6FF71180C434639408B4603
:101C800061431843814206D9631EC01998468742B2
:101C900000D856E14446401AB0FBF6F95B46494687
:101CA00059434B464FF6FF787343C01A03049A46D4
:101CB00060464346034050461843814208D90123F9
:101CC0005B424B44C0199C46874200D830E1E14654
:101CD0004B46240423434FF6FF7C98461C0C130C00
:101CE0009A46411A4346604618406346134004949E
:101CF0001C0044430394049C059363439946534654
:101D000058435C43039B48441B0C9C4660448145FC
:101D100003D980235B029C466444030C99464C44DF
:101D20004FF6FF79030404934B46039803409C4607
:101D3000049B63441800A14200D2AAE000D1A5E0B0
:101D4000281A8542AD410C1B6D42641BA74200D18D
:101D50002AE1B4FBF6F5330059466B436943E41AB4
:101D60002404030C1C43A1420AD96B1EE4199C46AF
:101D7000A74200D923E1A14200D820E1023DE419A5
:101D8000611AB1FBF6F466435B46891B4FF6FF769A
:101D90006343090430409B460843834209D9C01974
:101DA000611E874200D90CE1834200D809E1023C60
:101DB000C0195B462D042543C01A059B2E0C1C0040
:101DC00073434FF6FF719C46534629404C43594399
:101DD00061448946210C49445E438C4503D98023E4
:101DE0005B029C4666440B0C9C46B4444FF6FF765F
:101DF000090434400919604506D302D00122154375
:101E0000AFE6002900D1ACE638186E1EB84200D209
:101E1000B4E0604500D2DDE000D1EBE03500EDE755
:101E200001256D420121091A382900DD20E61F290C
:101E300000DC8CE01F2243465242121AD3401A00A3
:101E4000202906D040F23E4C4446019B63449C400E
:101E50002543691E8D4107212A430D0000241540AA
:101E6000114200D1B2E00F2100241140042900D119
:101E7000A9E0111D914292415242A4180A00230286
:101E800000D4A0E0012200240025F4E59D4200D307
:101E900056E701235B424344AD18994695429B4166
:101EA0005B429C46BC4461448F423BD28C426FD81B
:101EB0006CD0C84644E7A94200D9C8E643466A0840
:101EC000DE071643B4465808ED07C6E64846FFF756
:101ED00007FD01000200153120321C2900DCECE571
:101EE0004B460838834000259846F2E5FFF7F8FC9A
:101EF00003001A00153220301C2A00DC04E6544688
:101F0000083B00219C400AE60F222A40042A00D107
:101F100031E605225242AA42924104355242ED086E
:101F2000904429E68F42C4D1AA42BFD9C84607E7E8
:101F3000814200D8CBE602235B429C46C019E144B3
:101F4000C6E6814200D8A5E6023CC019A3E640F2ED
:101F50001E4C2C004246019BCC4063449D409A405D
:101F6000681E8541224344462A43CC40530786D00D
:101F70000F211140042900D07BE780E73500604540
:101F800000D03BE7914200D038E7EAE5A84290D97B
:101F90000223AD185B429C4695429B415B42E04464
:101FA0009C46BC446144CBE640F2FF3C019B634449
:101FB000181E00DC34E7012200259044DCE565466C
:101FC000DEE60C00F5E665076402240BD208154333
:101FD000002250E55400944292415242D719023DEA
:101FE0002200C019CBE78024434624031C4324036A
:101FF000240B04E68A42EDD33500C3E7F0B557461B
:1020000045464E46DE460400E0B50D0019001700B7
:10201000630FE2004C00640DA24640F2FF782803F3
:10202000400A03430803400A7C0F6E00044383B058
:10203000FF00A4463800760DED0F0192C90FC2458E
:1020400000D1BBE040F201094C4661408B468D4215
:1020500000D188E05446341BA146002C00DCB5E0DA
:102060005146002900D1CBE040F2FF718E4200D1F1
:102070009AE28021644609040C43A4464946382963
:1020800000DDA1E11F2900DD1CE248462021644655
:10209000091A8C403800A0464C468F40E040444628
:1020A000791E8F41044349463C436746CF40DB1BC2
:1020B000141BA24292415042181A030200D41BE1A1
:1020C0004002430A98464346002B00D16FE1404648
:1020D000FFF706FC01000839202220004346521A6F
:1020E0008B40D0408C4003438E4200DD5BE18E1B71
:1020F000711C1F2900DDD5E120221800521A26008C
:1021000094409040CE40621E9441CB403043044303
:1021100000261800630709D00F232340042B05D0A5
:10212000231DA342A441644200191C00030200D4F1
:10213000E5E0711C40F2FF76B14200D101E1CD4BE8
:10214000E40803405A075B0222431B0B3140100096
:1021500009051943ED07294303B03CBC9046994655
:10216000A246AB46F0BD5446341BA146002C63DDAD
:102170005146002900D1A6E0464500D183E18021E7
:10218000644609040C43A4464946382900DDC6E0EC
:102190001F2900DCC7E164462039CC404946A246ED
:1021A000202905D048464021091A60468840384316
:1021B00004005146601E84410C43B5E03C4384B3A7
:1021C0008B468D4235D0AC488146B1444846002804
:1021D00061D05046801B8146002E00D013E11800CC
:1021E0001043002800D1CDE14946481E012900D105
:1021F0000AE240F2FF75A94500D1FDE181460AE1FE
:1022000061463943002900D138E121000139012C10
:1022100000D1CEE140F2FF74A14500D133E18946FF
:102220002CE740F20108444661408B468D4200D0C5
:1022300010E791498946B1444846002800D1C9E0D9
:102240005146891B8946002E00D15AE140F2FF71A8
:102250008A4500D1EFE1802109040B434946382922
:1022600000DDB4E11F2900DD3CE2484620211C00CE
:10227000091A4E4610008A408C40F040511E8A4197
:10228000F340044314439C44E419BC42804140425F
:10229000564660444DE040F2FE74701C044200D08B
:1022A000D0E018001043002E00D061E1002800D1DA
:1022B000B4E160463843002800D0C3E15907D20892
:1022C0000A43DB0824E061463943002900D179E163
:1022D00021000139012C04D0444500D1D3E08946C6
:1022E00052E7D4199442924163445042181802268E
:1022F000030200D5CCE0013E630700D00CE7B146F5
:10230000E20841070A43C30840F2FF7189453DD006
:1023100040F2FF7148461B031B0B014017E7614663
:1023200039430C00671EBC41A418944292415042AC
:10233000C0180302E0D540F2FF7301369E4200D080
:10234000A6E040F2FF710023002200E718001043CE
:10235000002800D16FE160463843D208002800D140
:1023600092E0580702438020DB080003034208D0B4
:102370006146CC08044204D14B07FA081A435D4673
:102380002300510FD200D20849070A431100194314
:10239000002900D1CBE1802109030B431B0340F24C
:1023A000FF711B0BD3E63348761A1840B2E62000C3
:1023B000FFF796FA010018311F2900DC8CE6230094
:1023C0000838834000248FE6614639430C00671EBD
:1023D000BC416DE6701C824640F2FE7054462042BD
:1023E00000D0B4E0002EB1D119001143002900D172
:1023F00064E161463943002900D066E15907D208FB
:102400000A43DB0884E740F2FF70824500D12BE1EC
:102410008020000403434846382866DC49461F28CC
:1024200000DDD9E020201C00401A150082408440C5
:10243000CD40CB406146501E82412C43CB1A9C4676
:10244000224355E06046D41B191AA2428041404203
:10245000804608004146401A01008046090200D526
:1024600098E002002243002A00D02CE60023002539
:102470004EE7C046FFFF7FFF01F8FFFF5907D20874
:102480000A43DB0840E7D20859070A43DB087DE727
:102490000122A94B6108184014400C43C2071443A1
:1024A000400837E61A001F3EF2401600202903D0EC
:1024B0004022511A8B401C43621E94410020344339
:1024C000002619E764462039CC404946A246202917
:1024D00005D048464021091A604688403843040028
:1024E0005146601E84410C43E2E51A43531E9A4153
:1024F000BC1AA7429241634652425D465646981A1C
:10250000DBE519001143002900D1B5E049464846F2
:102510000139012800D1F6E040F2FF70814500D179
:10252000FEE089469AE6484620216446091A8C4016
:102530003800A0464C468F40E0404446791E8F410B
:10254000044349463C436746CF40DB19ECE640F282
:10255000FF718A4500D1F4E6D7199742924163444E
:1025600050421818C4077F0856463C434008C3E64B
:10257000002800D087E062463A43EABB802300256A
:102580001B0308E76346FA085B071A4363465D4688
:10259000DB08B9E6BC1A6246D31AA74292415242FE
:1025A0009B1A98465D468EE55907D2080A43DB0818
:1025B000ECE6D41B6146A24292415B1A52420126CC
:1025C000981A7AE55907D2080A43DB089CE61A43B1
:1025D0001400621E944157E61D002038C540202992
:1025E00004D04020401A83401A430192019C631E8C
:1025F0009C4122002A437BE76346FA085B071A43A3
:1026000063465D46DB08C1E6BC1A6246D31AA742A0
:10261000924152425D460126981A4EE562463A437F
:10262000002A00D122E76346FA085B071A43634693
:102630005D46DB086CE66346FA085B071A436346AF
:10264000DB08A3E66146D41B581AA24289414942DD
:10265000401A01025ED5BC1A6246D31AA7429241C3
:1026600052425D46981A55E56346FA085B071A43DD
:1026700063465D46DB0889E66346FA085B071A4352
:102680006346DB0840E66046384300288CD0580794
:10269000D20802438020DB080003034208D06146D1
:1026A000CC08044204D14B07FA081A435D462300C4
:1026B000510FD2004907D2080A4367E66346FA0879
:1026C0005B071A436346DB0822E6D4199442924121
:1026D000634450421818030200D40DE6164B01263D
:1026E000184009E618002039C8404946202905D07D
:1026F00040214C46091B8B401A430192019C631EEA
:102700009C410443C0E5D419BC428041634440422B
:102710001818ECE522000243002A00D1A6E6EBE5FA
:102720006346FA085B071A436346DB082EE600227D
:1027300040F2FF7113000AE5FFFF7FFF0A0030B58A
:1027400040F2FE34530009030500090B00205B0D25
:10275000D20FA34205DD40F21D40834202DD0E4B45
:10276000D01830BD80204003014340F23340C01AEE
:102770001F2809DD40F21340C31AD9400B0058420C
:10278000002AEED11800ECE7044CC540A44663448F
:1027900099400B002B43F2E7FFFFFF7FEDFBFFFFAC
:1027A00010B5040090B1FFF79BF840F21E431B1ACE
:1027B0000A2812DC0B222100121AD1400A0340F22F
:1027C000FF7115308440120B0B4001E00023002202
:1027D0001B0513432000190010BD22000B38824056
:1027E00040F2FF7112030024120B0B40F0E7C046C9
:1027F0008446101C62468C46191C634600E0C046A5
:102800001FB500F0E1F8002801D40021C8421FBD27
:1028100010B500F02BF84042013010BD10B500F0AB
:10282000D3F8002801DB002010BD012010BDC046F8
:1028300010B500F0C9F8002801DD002010BD01200E
:1028400010BDC04610B500F04FF8002801DC002094
:1028500010BD012010BDC04610B500F045F800289D
:1028600001DA002010BD012010BDC046F0B54F4672
:102870004646D64640F2FF75944691461A03120B1F
:10288000C0B54C000F0392465A00060080463F0B2D
:102890000120640DC90F520DDB0FAC420AD0AA42D1
:1028A00003D0944201D157450FD01CBC90469946A5
:1028B000A246F0BD3D003543002DF6D1A242F4D131
:1028C000524665462A43002AEFD10120C845ECD183
:1028D000994206D0002CE8D13E433000461EB0415C
:1028E000E3E70020E1E7C046F0B54E4645465746CF
:1028F000DE4604001800E0B5160040F2FF751B0329
:102900001B0B0F034A0099464300A446B0463F0BF9
:10291000520DC90F5B0DC00FAA4217D0AB421AD09F
:1029200042BB3C43A3466542654113B94C4626432E
:102930003EB3D5B9814229D002200139084001387F
:102940003CBC90469946A246AB46F0BD3D002543AF
:1029500085BB93420ED14D462E435EBB002AE9D182
:102960003C4365426541002DE4D00028E8D10120B8
:102970004042E5E7002BDDD14C462643002ED9D15D
:10298000DAE75B460020002BDAD0D5E79A420ADC72
:10299000EBDB4F45D0D810D000204F45D0D20029D6
:1029A000E5D00800CCE7434258410223404218409A
:1029B0000138C5E702204042C2E7C445BCD8002028
:1029C000C445BDD2EBE7C046F0B54E464546574636
:1029D000DE4604001800E0B5160040F2FF751B0348
:1029E0001B0B0F034A0099464300A446B0463F0B19
:1029F000520DC90F5B0DC00FAA420ED0AB4211D0D1
:102A00005ABB3C43A3466542654193B94C462643B5
:102A10007EB95B460020ABB10EE03D00254385B991
:102A200093421AD14D462E435EB91AB93C436542D2
:102A300065416DB9814217D0022001390840013843
:102A400000E002203CBC90469946A246AB46F0BD51
:102A50000028F7D101204042F4E7002BEAD14C4690
:102A60002643002EE6D1E7E79A4206DD434258416D
:102A70000223404218400138E4E79A42E8DB4F4520
:102A8000DAD806D000204F45DCD20029E2D0080079
:102A9000D8E7C445D0D80020C445D3D2F5E7C04616
:102AA000002310B59A4200D110BDCC5CC454013350
:102AB000F8E703008218934200D170471970013380
:102AC000F9E7FFFF4275696C7420776974682052DA
:102AD000656E6573617320416476616E6365642021
:102AE000466C657869626C6520536F6674776172B5
:102AF00065205061636B6167652076657273696FED
:102B00006E20322E302E3100322E302E3100000059
:102B100000010002F8B5C046F8BC08BC9E467047EC
:102B2000F8B5C046F8BC08BC9E4670475465726D47
:102B3000696E616C000000005254540053454747D1
:102B4000455200FFCA0A0000800900008009000009
:102B50008009000080090000800900008009000051
:102B60008009000080090000800900008009000041
:102B7000B00A0000120A000080090000800900006D
:102B80008009000080090000800900008009000021
:102B90008009000080090000800900008009000011
:102BA00080090000F0090000800900008009000091
:102BB000C809000080090000A80900008009000081
:102BC00080090000CA0A000030313233343536370C
:102BD0003839414243444546566F6C3A25646D5638
:102BE00000FFFFFF48656C6C6F576F726C640A00E2
:102BF000523A25640A00FFFF000000040000DFDFF6
:102C0000FFFF00000000000000000000102C00008A
:102C10000001020000FFFFFF4900C00000000000AB
:102C2000000000000000001818000000302C000018
:102C30000004010700000000008000000300000005
:102C4000008000000F00000000800000060100006E
:102C500000800000070100000000010008010000E2
:102C60000400000009010000040000000A01000047
:102C7000000000000102000000000000040200004B
:102C800004000000050200000040000006020000F1
:102C9000040000000C020000040000000D0200000F
:102CA0000000010000030000000001040103000017
:102CB00040000104020300000400000003030000C0
:102CC00004000000040300000004010701040000E8
:102CD0000400000009040000040000000A040000D1
:102CE000040000000B04000000800000000500004C
:102CF0000A0900000A0900003F0B00000000000064
:102D000000000000000000000000000000000000C3
:102D100000000000000000000000000001000200B0
:102D200008001000441C0000921A0000701A0000F5
:102D3000AC1B0000701A0000F41B0000701A0000A9
:102D4000AC1B0000921A0000921A0000F41B000055
:102D5000AC1B00004E1B00004E1B00004E1B000071
:082D6000041C0000000000004B
:102D6800BD780400DE2600002D05000001050000E6
:020000040101F8
:10001800FFFFFFFFFFFFFFFFFFFFFFFFFFFFFFFFE8
:0C002800FFFFFFFFFFFFFFFFFFFFFFFFD8
:04000003000017756D
:00000001FF
